{
  "_format": "hh-sol-artifact-1",
  "contractName": "ownable",
  "sourceName": "contracts/Ownable.sol",
  "abi": [
    {
      "inputs": [],
      "stateMutability": "nonpayable",
      "type": "constructor"
    },
    {
      "anonymous": false,
      "inputs": [
        {
          "indexed": true,
          "internalType": "address",
          "name": "Admin_Address",
          "type": "address"
        }
      ],
      "name": "AdminAdded",
      "type": "event"
    },
    {
      "anonymous": false,
      "inputs": [
        {
          "indexed": true,
          "internalType": "address",
          "name": "Admin_Address",
          "type": "address"
        }
      ],
      "name": "AdminRemoved",
      "type": "event"
    },
    {
      "anonymous": false,
      "inputs": [
        {
          "indexed": true,
          "internalType": "address",
          "name": "_from",
          "type": "address"
        },
        {
          "indexed": true,
          "internalType": "address",
          "name": "_to",
          "type": "address"
        }
      ],
      "name": "OwnerChanged",
      "type": "event"
    },
    {
      "inputs": [
        {
          "internalType": "address",
          "name": "_address",
          "type": "address"
        }
      ],
      "name": "addAdmin",
      "outputs": [
        {
          "internalType": "bool",
          "name": "success",
          "type": "bool"
        }
      ],
      "stateMutability": "nonpayable",
      "type": "function"
    },
    {
      "inputs": [],
      "name": "owner",
      "outputs": [
        {
          "internalType": "address",
          "name": "",
          "type": "address"
        }
      ],
      "stateMutability": "view",
      "type": "function"
    },
    {
      "inputs": [
        {
          "internalType": "address",
          "name": "_address",
          "type": "address"
        }
      ],
      "name": "removeAdmin",
      "outputs": [
        {
          "internalType": "bool",
          "name": "success",
          "type": "bool"
        }
      ],
      "stateMutability": "nonpayable",
      "type": "function"
    },
    {
      "inputs": [
        {
          "internalType": "address",
          "name": "_owner",
          "type": "address"
        }
      ],
      "name": "setOwner",
      "outputs": [
        {
          "internalType": "bool",
          "name": "success",
          "type": "bool"
        }
      ],
      "stateMutability": "nonpayable",
      "type": "function"
    }
  ],
  "bytecode": "0x608060405234801561001057600080fd5b50600080546001600160a01b0319163390811782558152600160208190526040909120805460ff191690911790556104788061004d6000396000f3fe608060405234801561001057600080fd5b506004361061004c5760003560e01c806313af4035146100515780631785f53c14610079578063704802751461008c5780638da5cb5b1461009f575b600080fd5b61006461005f3660046103c7565b6100ca565b60405190151581526020015b60405180910390f35b6100646100873660046103c7565b6101a0565b61006461009a3660046103c7565b6102df565b6000546100b2906001600160a01b031681565b6040516001600160a01b039091168152602001610070565b600080546001600160a01b031633146100fe5760405162461bcd60e51b81526004016100f5906103f7565b60405180910390fd5b336001600160a01b03831614156101505760405162461bcd60e51b815260206004820152601660248201527520b63932b0b23c902cb7bab9103a34329037bbb732b960511b60448201526064016100f5565b600080546001600160a01b0319166001600160a01b0384169081178255604051909133917fb532073b38c83145e3e5135377a08bf9aab55bc0fd7c1179cd4fb995d2a5159c9190a3506001919050565b600080546001600160a01b031633146101cb5760405162461bcd60e51b81526004016100f5906103f7565b6000546001600160a01b03838116911614156102295760405162461bcd60e51b815260206004820152601d60248201527f43616e27742072656d6f7665206f776e65722066726f6d2061646d696e00000060448201526064016100f5565b6001600160a01b03821660009081526001602052604090205460ff166102915760405162461bcd60e51b815260206004820152601960248201527f55736572206e6f742061646d696e20616c72656164792121210000000000000060448201526064016100f5565b6001600160a01b038216600081815260016020526040808220805460ff19169055517fa3b62bc36326052d97ea62d63c3d60308ed4c3ea8ac079dd8499f1e9c4f80c0f9190a2506001919050565b600080546001600160a01b0316331461030a5760405162461bcd60e51b81526004016100f5906103f7565b6001600160a01b03821660009081526001602052604090205460ff16156103735760405162461bcd60e51b815260206004820152601a60248201527f5573657220697320616c726561647920612061646d696e21212100000000000060448201526064016100f5565b6001600160a01b0382166000818152600160208190526040808320805460ff1916909217909155517f44d6d25963f097ad14f29f06854a01f575648a1ef82f30e562ccd3889717e3399190a2506001919050565b6000602082840312156103d957600080fd5b81356001600160a01b03811681146103f057600080fd5b9392505050565b6020808252602b908201527f4f6e6c79204f776e657220686173207065726d697373696f6e20746f20646f2060408201526a3a3430ba1030b1ba34b7b760a91b60608201526080019056fea26469706673582212206f03473fd9b8af0a1390672c1a2fc062d664ad2454eb4bdfb6b55b5c6b5d363664736f6c63430008080033",
  "linkReferences": {},
  "deployedLinkReferences": {}
}