{
  "_format": "hh-sol-artifact-1",
  "contractName": "Record",
  "sourceName": "contracts/medicalRecord.sol",
  "abi": [
    {
      "anonymous": false,
      "inputs": [
        {
          "indexed": true,
          "internalType": "address",
          "name": "Admin_Address",
          "type": "address"
        }
      ],
      "name": "AdminAdded",
      "type": "event"
    },
    {
      "anonymous": false,
      "inputs": [
        {
          "indexed": true,
          "internalType": "address",
          "name": "Admin_Address",
          "type": "address"
        }
      ],
      "name": "AdminRemoved",
      "type": "event"
    },
    {
      "anonymous": false,
      "inputs": [
        {
          "indexed": false,
          "internalType": "address",
          "name": "DoctorAddress",
          "type": "address"
        },
        {
          "indexed": false,
          "internalType": "string",
          "name": "time",
          "type": "string"
        },
        {
          "indexed": false,
          "internalType": "string",
          "name": "date",
          "type": "string"
        }
      ],
      "name": "AppointmentBooking",
      "type": "event"
    },
    {
      "anonymous": false,
      "inputs": [
        {
          "indexed": true,
          "internalType": "address",
          "name": "_from",
          "type": "address"
        },
        {
          "indexed": true,
          "internalType": "address",
          "name": "_to",
          "type": "address"
        }
      ],
      "name": "OwnerChanged",
      "type": "event"
    },
    {
      "anonymous": false,
      "inputs": [
        {
          "indexed": true,
          "internalType": "address",
          "name": "addr",
          "type": "address"
        },
        {
          "indexed": false,
          "internalType": "string",
          "name": "name",
          "type": "string"
        },
        {
          "indexed": false,
          "internalType": "string",
          "name": "qualifications",
          "type": "string"
        },
        {
          "indexed": false,
          "internalType": "string",
          "name": "contact",
          "type": "string"
        }
      ],
      "name": "RegisterDoctorEvent",
      "type": "event"
    },
    {
      "anonymous": false,
      "inputs": [
        {
          "indexed": true,
          "internalType": "address",
          "name": "addr",
          "type": "address"
        },
        {
          "indexed": false,
          "internalType": "string",
          "name": "name",
          "type": "string"
        },
        {
          "indexed": false,
          "internalType": "string",
          "name": "contact",
          "type": "string"
        },
        {
          "indexed": false,
          "internalType": "string",
          "name": "email",
          "type": "string"
        },
        {
          "indexed": false,
          "internalType": "string",
          "name": "gender",
          "type": "string"
        },
        {
          "indexed": false,
          "internalType": "string",
          "name": "rollnumber",
          "type": "string"
        }
      ],
      "name": "RegisterPatientEvent",
      "type": "event"
    },
    {
      "anonymous": false,
      "inputs": [
        {
          "indexed": true,
          "internalType": "address",
          "name": "addr",
          "type": "address"
        },
        {
          "indexed": false,
          "internalType": "bool",
          "name": "Availability",
          "type": "bool"
        }
      ],
      "name": "updateAvailability",
      "type": "event"
    },
    {
      "anonymous": false,
      "inputs": [
        {
          "indexed": true,
          "internalType": "address",
          "name": "addr",
          "type": "address"
        },
        {
          "indexed": false,
          "internalType": "string",
          "name": "name",
          "type": "string"
        },
        {
          "indexed": false,
          "internalType": "string",
          "name": "contact",
          "type": "string"
        },
        {
          "indexed": false,
          "internalType": "string",
          "name": "gender",
          "type": "string"
        },
        {
          "indexed": false,
          "internalType": "string",
          "name": "email",
          "type": "string"
        },
        {
          "indexed": false,
          "internalType": "string",
          "name": "dob",
          "type": "string"
        }
      ],
      "name": "updateDoctorPersonalDetailsEvent",
      "type": "event"
    },
    {
      "anonymous": false,
      "inputs": [
        {
          "indexed": true,
          "internalType": "address",
          "name": "addr",
          "type": "address"
        },
        {
          "indexed": false,
          "internalType": "string",
          "name": "qualifications",
          "type": "string"
        },
        {
          "indexed": false,
          "internalType": "string",
          "name": "departmentMajor",
          "type": "string"
        }
      ],
      "name": "updateDoctorProfessionalDetailsEvent",
      "type": "event"
    },
    {
      "anonymous": false,
      "inputs": [
        {
          "indexed": true,
          "internalType": "address",
          "name": "addr",
          "type": "address"
        },
        {
          "indexed": false,
          "internalType": "string",
          "name": "allergies",
          "type": "string"
        },
        {
          "indexed": false,
          "internalType": "string",
          "name": "vaccins",
          "type": "string"
        },
        {
          "indexed": false,
          "internalType": "string",
          "name": "height",
          "type": "string"
        },
        {
          "indexed": false,
          "internalType": "string",
          "name": "weight",
          "type": "string"
        },
        {
          "indexed": false,
          "internalType": "string",
          "name": "dob",
          "type": "string"
        }
      ],
      "name": "updatePatientEvent",
      "type": "event"
    },
    {
      "anonymous": false,
      "inputs": [
        {
          "indexed": true,
          "internalType": "address",
          "name": "addr",
          "type": "address"
        },
        {
          "indexed": false,
          "internalType": "string",
          "name": "name",
          "type": "string"
        },
        {
          "indexed": false,
          "internalType": "string",
          "name": "contact",
          "type": "string"
        },
        {
          "indexed": false,
          "internalType": "string",
          "name": "roll",
          "type": "string"
        },
        {
          "indexed": false,
          "internalType": "string",
          "name": "email",
          "type": "string"
        },
        {
          "indexed": false,
          "internalType": "string",
          "name": "gender",
          "type": "string"
        }
      ],
      "name": "updatePatientPersonalEvent",
      "type": "event"
    },
    {
      "anonymous": false,
      "inputs": [
        {
          "indexed": true,
          "internalType": "address",
          "name": "addr",
          "type": "address"
        },
        {
          "indexed": true,
          "internalType": "address",
          "name": "patientaddress",
          "type": "address"
        },
        {
          "indexed": false,
          "internalType": "bool",
          "name": "Status",
          "type": "bool"
        }
      ],
      "name": "updateStatus",
      "type": "event"
    },
    {
      "inputs": [
        {
          "internalType": "address",
          "name": "",
          "type": "address"
        }
      ],
      "name": "Appointments",
      "outputs": [
        {
          "internalType": "address",
          "name": "patientAddress",
          "type": "address"
        },
        {
          "internalType": "address",
          "name": "DoctorAddress",
          "type": "address"
        },
        {
          "internalType": "string",
          "name": "time",
          "type": "string"
        },
        {
          "internalType": "string",
          "name": "date",
          "type": "string"
        },
        {
          "internalType": "bool",
          "name": "status",
          "type": "bool"
        },
        {
          "internalType": "string",
          "name": "prescription",
          "type": "string"
        },
        {
          "internalType": "uint256",
          "name": "serialNumber",
          "type": "uint256"
        }
      ],
      "stateMutability": "view",
      "type": "function"
    },
    {
      "inputs": [
        {
          "internalType": "address",
          "name": "",
          "type": "address"
        },
        {
          "internalType": "uint256",
          "name": "",
          "type": "uint256"
        }
      ],
      "name": "AppointmentsDoc",
      "outputs": [
        {
          "internalType": "address",
          "name": "patientAddress",
          "type": "address"
        },
        {
          "internalType": "address",
          "name": "DoctorAddress",
          "type": "address"
        },
        {
          "internalType": "string",
          "name": "time",
          "type": "string"
        },
        {
          "internalType": "string",
          "name": "date",
          "type": "string"
        },
        {
          "internalType": "bool",
          "name": "status",
          "type": "bool"
        },
        {
          "internalType": "string",
          "name": "prescription",
          "type": "string"
        },
        {
          "internalType": "uint256",
          "name": "serialNumber",
          "type": "uint256"
        }
      ],
      "stateMutability": "view",
      "type": "function"
    },
    {
      "inputs": [
        {
          "internalType": "address",
          "name": "",
          "type": "address"
        }
      ],
      "name": "Doctors",
      "outputs": [
        {
          "internalType": "address",
          "name": "addr",
          "type": "address"
        },
        {
          "internalType": "string",
          "name": "name",
          "type": "string"
        },
        {
          "internalType": "string",
          "name": "qualifications",
          "type": "string"
        },
        {
          "internalType": "string",
          "name": "departmentMajor",
          "type": "string"
        },
        {
          "internalType": "string",
          "name": "gender",
          "type": "string"
        },
        {
          "internalType": "string",
          "name": "contact",
          "type": "string"
        },
        {
          "internalType": "string",
          "name": "dob",
          "type": "string"
        },
        {
          "internalType": "bool",
          "name": "Availability",
          "type": "bool"
        },
        {
          "internalType": "string",
          "name": "email",
          "type": "string"
        }
      ],
      "stateMutability": "view",
      "type": "function"
    },
    {
      "inputs": [],
      "name": "DoctorsList",
      "outputs": [
        {
          "components": [
            {
              "internalType": "address",
              "name": "addr",
              "type": "address"
            },
            {
              "internalType": "string",
              "name": "name",
              "type": "string"
            },
            {
              "internalType": "string",
              "name": "qualifications",
              "type": "string"
            },
            {
              "internalType": "string",
              "name": "departmentMajor",
              "type": "string"
            },
            {
              "internalType": "string",
              "name": "gender",
              "type": "string"
            },
            {
              "internalType": "string",
              "name": "contact",
              "type": "string"
            },
            {
              "internalType": "string",
              "name": "dob",
              "type": "string"
            },
            {
              "internalType": "bool",
              "name": "Availability",
              "type": "bool"
            },
            {
              "internalType": "string",
              "name": "email",
              "type": "string"
            }
          ],
          "internalType": "struct Record.Doctor[]",
          "name": "",
          "type": "tuple[]"
        }
      ],
      "stateMutability": "view",
      "type": "function"
    },
    {
      "inputs": [
        {
          "internalType": "address",
          "name": "",
          "type": "address"
        }
      ],
      "name": "Doctorserialnumber",
      "outputs": [
        {
          "internalType": "uint256",
          "name": "",
          "type": "uint256"
        }
      ],
      "stateMutability": "view",
      "type": "function"
    },
    {
      "inputs": [
        {
          "internalType": "address",
          "name": "",
          "type": "address"
        }
      ],
      "name": "Patients",
      "outputs": [
        {
          "internalType": "address",
          "name": "addr",
          "type": "address"
        },
        {
          "internalType": "string",
          "name": "name",
          "type": "string"
        },
        {
          "internalType": "string",
          "name": "rollnuber",
          "type": "string"
        },
        {
          "internalType": "string",
          "name": "contact",
          "type": "string"
        },
        {
          "internalType": "string",
          "name": "email",
          "type": "string"
        },
        {
          "internalType": "string",
          "name": "gender",
          "type": "string"
        },
        {
          "internalType": "string",
          "name": "allergies",
          "type": "string"
        },
        {
          "internalType": "string",
          "name": "vaccins",
          "type": "string"
        },
        {
          "internalType": "string",
          "name": "height",
          "type": "string"
        },
        {
          "internalType": "string",
          "name": "weight",
          "type": "string"
        },
        {
          "internalType": "string",
          "name": "dob",
          "type": "string"
        },
        {
          "internalType": "uint256",
          "name": "appointmentsCount",
          "type": "uint256"
        }
      ],
      "stateMutability": "view",
      "type": "function"
    },
    {
      "inputs": [],
      "name": "PatientsList",
      "outputs": [
        {
          "components": [
            {
              "internalType": "address",
              "name": "addr",
              "type": "address"
            },
            {
              "internalType": "string",
              "name": "name",
              "type": "string"
            },
            {
              "internalType": "string",
              "name": "rollnuber",
              "type": "string"
            },
            {
              "internalType": "string",
              "name": "contact",
              "type": "string"
            },
            {
              "internalType": "string",
              "name": "email",
              "type": "string"
            },
            {
              "internalType": "string",
              "name": "gender",
              "type": "string"
            },
            {
              "internalType": "string",
              "name": "allergies",
              "type": "string"
            },
            {
              "internalType": "string",
              "name": "vaccins",
              "type": "string"
            },
            {
              "internalType": "string",
              "name": "height",
              "type": "string"
            },
            {
              "internalType": "string",
              "name": "weight",
              "type": "string"
            },
            {
              "internalType": "string",
              "name": "dob",
              "type": "string"
            },
            {
              "components": [
                {
                  "internalType": "string",
                  "name": "reason",
                  "type": "string"
                },
                {
                  "internalType": "string",
                  "name": "ipfs",
                  "type": "string"
                }
              ],
              "internalType": "struct Record.Records[]",
              "name": "records",
              "type": "tuple[]"
            },
            {
              "internalType": "uint256",
              "name": "appointmentsCount",
              "type": "uint256"
            }
          ],
          "internalType": "struct Record.Patient[]",
          "name": "",
          "type": "tuple[]"
        }
      ],
      "stateMutability": "view",
      "type": "function"
    },
    {
      "inputs": [
        {
          "internalType": "address",
          "name": "",
          "type": "address"
        }
      ],
      "name": "Patientserialnumber",
      "outputs": [
        {
          "internalType": "uint256",
          "name": "",
          "type": "uint256"
        }
      ],
      "stateMutability": "view",
      "type": "function"
    },
    {
      "inputs": [
        {
          "internalType": "string",
          "name": "_name",
          "type": "string"
        },
        {
          "internalType": "string",
          "name": "_contact",
          "type": "string"
        },
        {
          "internalType": "string",
          "name": "_email",
          "type": "string"
        },
        {
          "internalType": "string",
          "name": "_gender",
          "type": "string"
        },
        {
          "internalType": "string",
          "name": "_rollnumber",
          "type": "string"
        }
      ],
      "name": "Register",
      "outputs": [],
      "stateMutability": "nonpayable",
      "type": "function"
    },
    {
      "inputs": [
        {
          "internalType": "string",
          "name": "_name",
          "type": "string"
        },
        {
          "internalType": "string",
          "name": "_contact",
          "type": "string"
        },
        {
          "internalType": "string",
          "name": "_qualifications",
          "type": "string"
        },
        {
          "internalType": "string",
          "name": "_email",
          "type": "string"
        }
      ],
      "name": "RegisterDoctor",
      "outputs": [],
      "stateMutability": "nonpayable",
      "type": "function"
    },
    {
      "inputs": [
        {
          "internalType": "address",
          "name": "_address",
          "type": "address"
        }
      ],
      "name": "addAdmin",
      "outputs": [
        {
          "internalType": "bool",
          "name": "success",
          "type": "bool"
        }
      ],
      "stateMutability": "nonpayable",
      "type": "function"
    },
    {
      "inputs": [
        {
          "internalType": "address",
          "name": "_addr",
          "type": "address"
        },
        {
          "internalType": "string",
          "name": "_reason",
          "type": "string"
        },
        {
          "internalType": "string",
          "name": "_ipfs",
          "type": "string"
        }
      ],
      "name": "addRecord",
      "outputs": [],
      "stateMutability": "nonpayable",
      "type": "function"
    },
    {
      "inputs": [
        {
          "internalType": "uint256",
          "name": "",
          "type": "uint256"
        }
      ],
      "name": "appointments",
      "outputs": [
        {
          "internalType": "address",
          "name": "patientAddress",
          "type": "address"
        },
        {
          "internalType": "address",
          "name": "DoctorAddress",
          "type": "address"
        },
        {
          "internalType": "string",
          "name": "time",
          "type": "string"
        },
        {
          "internalType": "string",
          "name": "date",
          "type": "string"
        },
        {
          "internalType": "bool",
          "name": "status",
          "type": "bool"
        },
        {
          "internalType": "string",
          "name": "prescription",
          "type": "string"
        },
        {
          "internalType": "uint256",
          "name": "serialNumber",
          "type": "uint256"
        }
      ],
      "stateMutability": "view",
      "type": "function"
    },
    {
      "inputs": [
        {
          "internalType": "address",
          "name": "_docAddress",
          "type": "address"
        },
        {
          "internalType": "string",
          "name": "_time",
          "type": "string"
        },
        {
          "internalType": "string",
          "name": "_date",
          "type": "string"
        }
      ],
      "name": "bookAppointment",
      "outputs": [],
      "stateMutability": "nonpayable",
      "type": "function"
    },
    {
      "inputs": [
        {
          "internalType": "uint256",
          "name": "",
          "type": "uint256"
        }
      ],
      "name": "doctors",
      "outputs": [
        {
          "internalType": "address",
          "name": "addr",
          "type": "address"
        },
        {
          "internalType": "string",
          "name": "name",
          "type": "string"
        },
        {
          "internalType": "string",
          "name": "qualifications",
          "type": "string"
        },
        {
          "internalType": "string",
          "name": "departmentMajor",
          "type": "string"
        },
        {
          "internalType": "string",
          "name": "gender",
          "type": "string"
        },
        {
          "internalType": "string",
          "name": "contact",
          "type": "string"
        },
        {
          "internalType": "string",
          "name": "dob",
          "type": "string"
        },
        {
          "internalType": "bool",
          "name": "Availability",
          "type": "bool"
        },
        {
          "internalType": "string",
          "name": "email",
          "type": "string"
        }
      ],
      "stateMutability": "view",
      "type": "function"
    },
    {
      "inputs": [],
      "name": "getAllAppointments",
      "outputs": [
        {
          "components": [
            {
              "internalType": "address",
              "name": "patientAddress",
              "type": "address"
            },
            {
              "internalType": "address",
              "name": "DoctorAddress",
              "type": "address"
            },
            {
              "internalType": "string",
              "name": "time",
              "type": "string"
            },
            {
              "internalType": "string",
              "name": "date",
              "type": "string"
            },
            {
              "internalType": "bool",
              "name": "status",
              "type": "bool"
            },
            {
              "internalType": "string",
              "name": "prescription",
              "type": "string"
            },
            {
              "internalType": "uint256",
              "name": "serialNumber",
              "type": "uint256"
            }
          ],
          "internalType": "struct Record.Appointment[]",
          "name": "",
          "type": "tuple[]"
        }
      ],
      "stateMutability": "view",
      "type": "function"
    },
    {
      "inputs": [],
      "name": "getDoctorAppointments",
      "outputs": [
        {
          "components": [
            {
              "internalType": "address",
              "name": "patientAddress",
              "type": "address"
            },
            {
              "internalType": "address",
              "name": "DoctorAddress",
              "type": "address"
            },
            {
              "internalType": "string",
              "name": "time",
              "type": "string"
            },
            {
              "internalType": "string",
              "name": "date",
              "type": "string"
            },
            {
              "internalType": "bool",
              "name": "status",
              "type": "bool"
            },
            {
              "internalType": "string",
              "name": "prescription",
              "type": "string"
            },
            {
              "internalType": "uint256",
              "name": "serialNumber",
              "type": "uint256"
            }
          ],
          "internalType": "struct Record.Appointment[]",
          "name": "",
          "type": "tuple[]"
        }
      ],
      "stateMutability": "view",
      "type": "function"
    },
    {
      "inputs": [],
      "name": "getPatientAppointment",
      "outputs": [
        {
          "components": [
            {
              "internalType": "address",
              "name": "patientAddress",
              "type": "address"
            },
            {
              "internalType": "address",
              "name": "DoctorAddress",
              "type": "address"
            },
            {
              "internalType": "string",
              "name": "time",
              "type": "string"
            },
            {
              "internalType": "string",
              "name": "date",
              "type": "string"
            },
            {
              "internalType": "bool",
              "name": "status",
              "type": "bool"
            },
            {
              "internalType": "string",
              "name": "prescription",
              "type": "string"
            },
            {
              "internalType": "uint256",
              "name": "serialNumber",
              "type": "uint256"
            }
          ],
          "internalType": "struct Record.Appointment",
          "name": "",
          "type": "tuple"
        }
      ],
      "stateMutability": "view",
      "type": "function"
    },
    {
      "inputs": [],
      "name": "getPatientDetailes",
      "outputs": [
        {
          "components": [
            {
              "internalType": "address",
              "name": "addr",
              "type": "address"
            },
            {
              "internalType": "string",
              "name": "name",
              "type": "string"
            },
            {
              "internalType": "string",
              "name": "rollnuber",
              "type": "string"
            },
            {
              "internalType": "string",
              "name": "contact",
              "type": "string"
            },
            {
              "internalType": "string",
              "name": "email",
              "type": "string"
            },
            {
              "internalType": "string",
              "name": "gender",
              "type": "string"
            },
            {
              "internalType": "string",
              "name": "allergies",
              "type": "string"
            },
            {
              "internalType": "string",
              "name": "vaccins",
              "type": "string"
            },
            {
              "internalType": "string",
              "name": "height",
              "type": "string"
            },
            {
              "internalType": "string",
              "name": "weight",
              "type": "string"
            },
            {
              "internalType": "string",
              "name": "dob",
              "type": "string"
            },
            {
              "components": [
                {
                  "internalType": "string",
                  "name": "reason",
                  "type": "string"
                },
                {
                  "internalType": "string",
                  "name": "ipfs",
                  "type": "string"
                }
              ],
              "internalType": "struct Record.Records[]",
              "name": "records",
              "type": "tuple[]"
            },
            {
              "internalType": "uint256",
              "name": "appointmentsCount",
              "type": "uint256"
            }
          ],
          "internalType": "struct Record.Patient",
          "name": "",
          "type": "tuple"
        }
      ],
      "stateMutability": "view",
      "type": "function"
    },
    {
      "inputs": [
        {
          "internalType": "address",
          "name": "",
          "type": "address"
        }
      ],
      "name": "isDoctor",
      "outputs": [
        {
          "internalType": "bool",
          "name": "",
          "type": "bool"
        }
      ],
      "stateMutability": "view",
      "type": "function"
    },
    {
      "inputs": [
        {
          "internalType": "address",
          "name": "",
          "type": "address"
        }
      ],
      "name": "isPatient",
      "outputs": [
        {
          "internalType": "bool",
          "name": "",
          "type": "bool"
        }
      ],
      "stateMutability": "view",
      "type": "function"
    },
    {
      "inputs": [],
      "name": "owner",
      "outputs": [
        {
          "internalType": "address",
          "name": "",
          "type": "address"
        }
      ],
      "stateMutability": "view",
      "type": "function"
    },
    {
      "inputs": [
        {
          "internalType": "uint256",
          "name": "",
          "type": "uint256"
        }
      ],
      "name": "patients",
      "outputs": [
        {
          "internalType": "address",
          "name": "addr",
          "type": "address"
        },
        {
          "internalType": "string",
          "name": "name",
          "type": "string"
        },
        {
          "internalType": "string",
          "name": "rollnuber",
          "type": "string"
        },
        {
          "internalType": "string",
          "name": "contact",
          "type": "string"
        },
        {
          "internalType": "string",
          "name": "email",
          "type": "string"
        },
        {
          "internalType": "string",
          "name": "gender",
          "type": "string"
        },
        {
          "internalType": "string",
          "name": "allergies",
          "type": "string"
        },
        {
          "internalType": "string",
          "name": "vaccins",
          "type": "string"
        },
        {
          "internalType": "string",
          "name": "height",
          "type": "string"
        },
        {
          "internalType": "string",
          "name": "weight",
          "type": "string"
        },
        {
          "internalType": "string",
          "name": "dob",
          "type": "string"
        },
        {
          "internalType": "uint256",
          "name": "appointmentsCount",
          "type": "uint256"
        }
      ],
      "stateMutability": "view",
      "type": "function"
    },
    {
      "inputs": [
        {
          "internalType": "address",
          "name": "_address",
          "type": "address"
        }
      ],
      "name": "removeAdmin",
      "outputs": [
        {
          "internalType": "bool",
          "name": "success",
          "type": "bool"
        }
      ],
      "stateMutability": "nonpayable",
      "type": "function"
    },
    {
      "inputs": [
        {
          "internalType": "bool",
          "name": "_availability",
          "type": "bool"
        }
      ],
      "name": "setAvailability",
      "outputs": [],
      "stateMutability": "nonpayable",
      "type": "function"
    },
    {
      "inputs": [
        {
          "internalType": "address",
          "name": "_owner",
          "type": "address"
        }
      ],
      "name": "setOwner",
      "outputs": [
        {
          "internalType": "bool",
          "name": "success",
          "type": "bool"
        }
      ],
      "stateMutability": "nonpayable",
      "type": "function"
    },
    {
      "inputs": [
        {
          "internalType": "uint256",
          "name": "i",
          "type": "uint256"
        },
        {
          "internalType": "bool",
          "name": "_status",
          "type": "bool"
        }
      ],
      "name": "setStatus",
      "outputs": [],
      "stateMutability": "nonpayable",
      "type": "function"
    },
    {
      "inputs": [
        {
          "internalType": "string",
          "name": "_name",
          "type": "string"
        },
        {
          "internalType": "string",
          "name": "_contact",
          "type": "string"
        },
        {
          "internalType": "string",
          "name": "_gender",
          "type": "string"
        },
        {
          "internalType": "string",
          "name": "_dob",
          "type": "string"
        },
        {
          "internalType": "string",
          "name": "_email",
          "type": "string"
        }
      ],
      "name": "updateDocterPersonalDetails",
      "outputs": [],
      "stateMutability": "nonpayable",
      "type": "function"
    },
    {
      "inputs": [
        {
          "internalType": "string",
          "name": "_qualifications",
          "type": "string"
        },
        {
          "internalType": "string",
          "name": "_departmentMajor",
          "type": "string"
        }
      ],
      "name": "updateDocterProfessionalDetails",
      "outputs": [],
      "stateMutability": "nonpayable",
      "type": "function"
    },
    {
      "inputs": [
        {
          "internalType": "string",
          "name": "_name",
          "type": "string"
        },
        {
          "internalType": "string",
          "name": "_contact",
          "type": "string"
        },
        {
          "internalType": "string",
          "name": "_roll",
          "type": "string"
        },
        {
          "internalType": "string",
          "name": "_email",
          "type": "string"
        },
        {
          "internalType": "string",
          "name": "_gender",
          "type": "string"
        }
      ],
      "name": "updatePatientPersonal",
      "outputs": [],
      "stateMutability": "nonpayable",
      "type": "function"
    },
    {
      "inputs": [
        {
          "internalType": "string",
          "name": "_allergies",
          "type": "string"
        },
        {
          "internalType": "string",
          "name": "_vaccins",
          "type": "string"
        },
        {
          "internalType": "string",
          "name": "_height",
          "type": "string"
        },
        {
          "internalType": "string",
          "name": "_weight",
          "type": "string"
        },
        {
          "internalType": "string",
          "name": "_dob",
          "type": "string"
        }
      ],
      "name": "updatePatientmedicalRecord",
      "outputs": [],
      "stateMutability": "nonpayable",
      "type": "function"
    }
  ],
  "bytecode": "0x608060405234801561001057600080fd5b50600080546001600160a01b0319163390811782558152600160208190526040909120805460ff191690911790556155438061004d6000396000f3fe608060405234801561001057600080fd5b50600436106101e55760003560e01c80637933570c1161010f578063afca7e15116100a2578063dc7aa36b11610071578063dc7aa36b146104a1578063e585e47d146104b4578063e5d87b77146104c7578063fc911f5f146104da57600080fd5b8063afca7e1514610453578063bcbf152914610466578063d47b41d51461047b578063da21f3ed1461048e57600080fd5b80638f9c79ed116100de5780638f9c79ed146103cf57806393119a83146103f2578063996440c61461041d578063a809b7471461044057600080fd5b80637933570c146103745780637dd81cf61461037c5780638719e8ac146103915780638da5cb5b146103a457600080fd5b8063291be93b116101875780636b4f5e81116101565780636b4f5e81146103045780636b9547d0146103245780636efb1b8414610339578063704802751461036157600080fd5b8063291be93b146102b6578063317b584d146102c95780633d973f0e146102dc5780635a437dfb146102f157600080fd5b806313af4035116101c357806313af4035146102565780631785f53c146102795780632673ab5f1461028c57806326a18375146102a157600080fd5b80630624a40c146101ea5780630b189ea41461021d57806312dc901314610243575b600080fd5b61020a6101f836600461475b565b60056020526000908152604090205481565b6040519081526020015b60405180910390f35b61023061022b36600461475b565b6104ed565b60405161021497969594939291906147ca565b610230610251366004614839565b6106d6565b61026961026436600461475b565b61071f565b6040519015158152602001610214565b61026961028736600461475b565b6107f6565b610294610935565b6040516102149190614a1c565b6102b46102af366004614a3f565b611139565b005b6102b46102c4366004614aa3565b6111f4565b6102b46102d7366004614b24565b611519565b6102e461179a565b6040516102149190614ca0565b6102b46102ff366004614cb3565b611a20565b61020a61031236600461475b565b60086020526000908152604090205481565b61032c611c8b565b6040516102149190614d77565b61034c610347366004614839565b611f0a565b60405161021499989796959493929190614dd9565b61026961036f36600461475b565b61232f565b61032c612417565b61038461266c565b6040516102149190614e8f565b6102b461039f366004614fc7565b612aea565b6000546103b7906001600160a01b031681565b6040516001600160a01b039091168152602001610214565b6102696103dd36600461475b565b60036020526000908152604090205460ff1681565b610405610400366004614839565b612c28565b6040516102149c9b9a99989796959493929190614ff3565b61026961042b36600461475b565b60066020526000908152604090205460ff1681565b6102b461044e366004614b24565b6131ee565b61040561046136600461475b565b613402565b61046e61342e565b60405161021491906150e7565b6102b46104893660046151df565b613bdc565b6102b461049c366004614b24565b613d2e565b61034c6104af36600461475b565b613f9a565b6102306104c2366004615253565b613fc6565b6102b46104d5366004614b24565b61401b565b6102b46104e836600461527d565b6142e3565b6009602052600090815260409020805460018201546002830180546001600160a01b03938416949290931692610522906152e9565b80601f016020809104026020016040519081016040528092919081815260200182805461054e906152e9565b801561059b5780601f106105705761010080835404028352916020019161059b565b820191906000526020600020905b81548152906001019060200180831161057e57829003601f168201915b5050505050908060030180546105b0906152e9565b80601f01602080910402602001604051908101604052809291908181526020018280546105dc906152e9565b80156106295780601f106105fe57610100808354040283529160200191610629565b820191906000526020600020905b81548152906001019060200180831161060c57829003601f168201915b5050506004840154600585018054949560ff90921694919350915061064d906152e9565b80601f0160208091040260200160405190810160405280929190818152602001828054610679906152e9565b80156106c65780601f1061069b576101008083540402835291602001916106c6565b820191906000526020600020905b8154815290600101906020018083116106a957829003601f168201915b5050505050908060060154905087565b600d81815481106106e657600080fd5b60009182526020909120600790910201805460018201546002830180546001600160a01b039384169550929091169291610522906152e9565b600080546001600160a01b031633146107535760405162461bcd60e51b815260040161074a90615324565b60405180910390fd5b336001600160a01b03831614156107a55760405162461bcd60e51b815260206004820152601660248201527520b63932b0b23c902cb7bab9103a34329037bbb732b960511b604482015260640161074a565b600080546001600160a01b0319166001600160a01b0384169081178255604051909133917fb532073b38c83145e3e5135377a08bf9aab55bc0fd7c1179cd4fb995d2a5159c9190a35060015b919050565b600080546001600160a01b031633146108215760405162461bcd60e51b815260040161074a90615324565b6000546001600160a01b038381169116141561087f5760405162461bcd60e51b815260206004820152601d60248201527f43616e27742072656d6f7665206f776e65722066726f6d2061646d696e000000604482015260640161074a565b6001600160a01b03821660009081526001602052604090205460ff166108e75760405162461bcd60e51b815260206004820152601960248201527f55736572206e6f742061646d696e20616c726561647921212100000000000000604482015260640161074a565b6001600160a01b038216600081815260016020526040808220805460ff19169055517fa3b62bc36326052d97ea62d63c3d60308ed4c3ea8ac079dd8499f1e9c4f80c0f9190a2506001919050565b6109a9604051806101a0016040528060006001600160a01b031681526020016060815260200160608152602001606081526020016060815260200160608152602001606081526020016060815260200160608152602001606081526020016060815260200160608152602001600081525090565b3360009081526003602052604090205460ff166109c557600080fd5b3360009081526004602090815260409182902082516101a0810190935280546001600160a01b031683526001810180549192840191610a03906152e9565b80601f0160208091040260200160405190810160405280929190818152602001828054610a2f906152e9565b8015610a7c5780601f10610a5157610100808354040283529160200191610a7c565b820191906000526020600020905b815481529060010190602001808311610a5f57829003601f168201915b50505050508152602001600282018054610a95906152e9565b80601f0160208091040260200160405190810160405280929190818152602001828054610ac1906152e9565b8015610b0e5780601f10610ae357610100808354040283529160200191610b0e565b820191906000526020600020905b815481529060010190602001808311610af157829003601f168201915b50505050508152602001600382018054610b27906152e9565b80601f0160208091040260200160405190810160405280929190818152602001828054610b53906152e9565b8015610ba05780601f10610b7557610100808354040283529160200191610ba0565b820191906000526020600020905b815481529060010190602001808311610b8357829003601f168201915b50505050508152602001600482018054610bb9906152e9565b80601f0160208091040260200160405190810160405280929190818152602001828054610be5906152e9565b8015610c325780601f10610c0757610100808354040283529160200191610c32565b820191906000526020600020905b815481529060010190602001808311610c1557829003601f168201915b50505050508152602001600582018054610c4b906152e9565b80601f0160208091040260200160405190810160405280929190818152602001828054610c77906152e9565b8015610cc45780601f10610c9957610100808354040283529160200191610cc4565b820191906000526020600020905b815481529060010190602001808311610ca757829003601f168201915b50505050508152602001600682018054610cdd906152e9565b80601f0160208091040260200160405190810160405280929190818152602001828054610d09906152e9565b8015610d565780601f10610d2b57610100808354040283529160200191610d56565b820191906000526020600020905b815481529060010190602001808311610d3957829003601f168201915b50505050508152602001600782018054610d6f906152e9565b80601f0160208091040260200160405190810160405280929190818152602001828054610d9b906152e9565b8015610de85780601f10610dbd57610100808354040283529160200191610de8565b820191906000526020600020905b815481529060010190602001808311610dcb57829003601f168201915b50505050508152602001600882018054610e01906152e9565b80601f0160208091040260200160405190810160405280929190818152602001828054610e2d906152e9565b8015610e7a5780601f10610e4f57610100808354040283529160200191610e7a565b820191906000526020600020905b815481529060010190602001808311610e5d57829003601f168201915b50505050508152602001600982018054610e93906152e9565b80601f0160208091040260200160405190810160405280929190818152602001828054610ebf906152e9565b8015610f0c5780601f10610ee157610100808354040283529160200191610f0c565b820191906000526020600020905b815481529060010190602001808311610eef57829003601f168201915b50505050508152602001600a82018054610f25906152e9565b80601f0160208091040260200160405190810160405280929190818152602001828054610f51906152e9565b8015610f9e5780601f10610f7357610100808354040283529160200191610f9e565b820191906000526020600020905b815481529060010190602001808311610f8157829003601f168201915b50505050508152602001600b8201805480602002602001604051908101604052809291908181526020016000905b828210156111225783829060005260206000209060020201604051806040016040529081600082018054610fff906152e9565b80601f016020809104026020016040519081016040528092919081815260200182805461102b906152e9565b80156110785780601f1061104d57610100808354040283529160200191611078565b820191906000526020600020905b81548152906001019060200180831161105b57829003601f168201915b50505050508152602001600182018054611091906152e9565b80601f01602080910402602001604051908101604052809291908181526020018280546110bd906152e9565b801561110a5780601f106110df5761010080835404028352916020019161110a565b820191906000526020600020905b8154815290600101906020018083116110ed57829003601f168201915b50505050508152505081526020019060010190610fcc565b505050508152602001600c82015481525050905090565b3360009081526006602052604090205460ff1661115557600080fd5b336000908152600760208181526040808420928301805460ff1916861515179055600890915290912054600c8054849190839081106111965761119661536f565b6000918252602091829020600990910201600701805460ff191692151592909217909155604051841515815233917fc24f957bc1b53786acf6bab0bc5e70e0d9df0c076473e70a1f826136cfd4e53c910160405180910390a2505050565b3360009081526003602052604090205460ff1661121057600080fd5b6001600160a01b03851660009081526006602052604090205460ff1661123557600080fd5b33600081815260096020526040902080546001600160a01b031990811690921781556001810180549092166001600160a01b0388161790915561127c6003820184846144c5565b5061128b6002820186866144c5565b50600d80546006830181905560018082018355600092909252825460079091027fd7b6990105719101dabeb77144f2a3385c8033acd3af97e9423a695e81ad1eb5810180546001600160a01b03199081166001600160a01b03948516178255938501547fd7b6990105719101dabeb77144f2a3385c8033acd3af97e9423a695e81ad1eb68301805490951693169290921790925560028301805484937fd7b6990105719101dabeb77144f2a3385c8033acd3af97e9423a695e81ad1eb7019190611354906152e9565b61135f929190614549565b506003820181600301908054611374906152e9565b61137f929190614549565b50600482810154908201805460ff191660ff909216151591909117905560058083018054918301916113b0906152e9565b6113bb929190614549565b506006918201549101556001600160a01b038681166000908152600a60209081526040822080546001808201835591845291909220845460079092020180549184166001600160a01b0319928316178155848301549281018054939094169290911691909117909155600280830180548493928301919061143b906152e9565b611446929190614549565b50600382018160030190805461145b906152e9565b611466929190614549565b50600482810154908201805460ff191660ff90921615159190911790556005808301805491830191611497906152e9565b6114a2929190614549565b50600691820154910155336000908152600460205260408120600c8101805491926114cc83615385565b91905055507fbc8dc2e1bd0013b4f2c48cbdd2d0fccb959ccce9a3540fd25dac0174dd55633087878787876040516115089594939291906153d7565b60405180910390a150505050505050565b3360009081526003602052604090205460ff1661153557600080fd5b336000908152600460205260409020611552600182018c8c6144c5565b50611561600382018a8a6144c5565b506115706002820188886144c5565b5061157f6004820186866144c5565b5061158e6005820184846144c5565b5033600090815260056020526040902054600b805483929081106115b4576115b461536f565b600091825260209091208254600d9092020180546001600160a01b0319166001600160a01b0390921691909117815560018083018054918301916115f7906152e9565b611602929190614549565b506002820181600201908054611617906152e9565b611622929190614549565b506003820181600301908054611637906152e9565b611642929190614549565b506004820181600401908054611657906152e9565b611662929190614549565b506005820181600501908054611677906152e9565b611682929190614549565b506006820181600601908054611697906152e9565b6116a2929190614549565b5060078201816007019080546116b7906152e9565b6116c2929190614549565b5060088201816008019080546116d7906152e9565b6116e2929190614549565b5060098201816009019080546116f7906152e9565b611702929190614549565b50600a820181600a01908054611717906152e9565b611722929190614549565b50600b828101805461173792840191906145c4565b50600c9182015491015560405133907fc984543dbea11e2f25c75729c6930a0898bd483b8cc1da691ba1ca6778e27cad90611785908e908e908e908e908e908e908e908e908e908e9061541b565b60405180910390a25050505050505050505050565b6117ee6040518060e0016040528060006001600160a01b0316815260200160006001600160a01b03168152602001606081526020016060815260200160001515815260200160608152602001600081525090565b3360009081526003602052604090205460ff1661180a57600080fd5b33600090815260096020908152604091829020825160e08101845281546001600160a01b039081168252600183015416928101929092526002810180549293919291840191611858906152e9565b80601f0160208091040260200160405190810160405280929190818152602001828054611884906152e9565b80156118d15780601f106118a6576101008083540402835291602001916118d1565b820191906000526020600020905b8154815290600101906020018083116118b457829003601f168201915b505050505081526020016003820180546118ea906152e9565b80601f0160208091040260200160405190810160405280929190818152602001828054611916906152e9565b80156119635780601f1061193857610100808354040283529160200191611963565b820191906000526020600020905b81548152906001019060200180831161194657829003601f168201915b5050509183525050600482015460ff161515602082015260058201805460409092019161198f906152e9565b80601f01602080910402602001604051908101604052809291908181526020018280546119bb906152e9565b8015611a085780601f106119dd57610100808354040283529160200191611a08565b820191906000526020600020905b8154815290600101906020018083116119eb57829003601f168201915b50505050508152602001600682015481525050905090565b3360009081526006602052604090205460ff1615611a3d57600080fd5b33600081815260076020526040902080546001600160a01b0319169091178155611a6b600182018a8a6144c5565b50611a7a6005820188886144c5565b50611a896002820186866144c5565b50611a986008820184846144c5565b50336000908152600660209081526040808320805460ff19166001908117909155600c8054600890945291842083905582810182559252825460099091027fdf6966c971051c3d54ec59162606531493a51404a002842f56009d7e5cf4a8c7810180546001600160a01b0319166001600160a01b0393909316929092178255918301805484937fdf6966c971051c3d54ec59162606531493a51404a002842f56009d7e5cf4a8c8019190611b4b906152e9565b611b56929190614549565b506002820181600201908054611b6b906152e9565b611b76929190614549565b506003820181600301908054611b8b906152e9565b611b96929190614549565b506004820181600401908054611bab906152e9565b611bb6929190614549565b506005820181600501908054611bcb906152e9565b611bd6929190614549565b506006820181600601908054611beb906152e9565b611bf6929190614549565b50600782810154908201805460ff191660ff90921615159190911790556008808301805491830191611c27906152e9565b611c32929190614549565b505050336001600160a01b03167f018c47c4985dd2f0a189748490962d06eb5ecc5e5e6ba436d324bea399d131bb8a8a88888c8c604051611c7896959493929190615492565b60405180910390a2505050505050505050565b3360009081526006602052604090205460609060ff16611caa57600080fd5b336000908152600a6020908152604080832080548251818502810185019093528083529192909190849084015b82821015611eff5760008481526020908190206040805160e0810182526007860290920180546001600160a01b0390811684526001820154169383019390935260028301805492939291840191611d2d906152e9565b80601f0160208091040260200160405190810160405280929190818152602001828054611d59906152e9565b8015611da65780601f10611d7b57610100808354040283529160200191611da6565b820191906000526020600020905b815481529060010190602001808311611d8957829003601f168201915b50505050508152602001600382018054611dbf906152e9565b80601f0160208091040260200160405190810160405280929190818152602001828054611deb906152e9565b8015611e385780601f10611e0d57610100808354040283529160200191611e38565b820191906000526020600020905b815481529060010190602001808311611e1b57829003601f168201915b5050509183525050600482015460ff1615156020820152600582018054604090920191611e64906152e9565b80601f0160208091040260200160405190810160405280929190818152602001828054611e90906152e9565b8015611edd5780601f10611eb257610100808354040283529160200191611edd565b820191906000526020600020905b815481529060010190602001808311611ec057829003601f168201915b5050505050815260200160068201548152505081526020019060010190611cd7565b509295945050505050565b600c8181548110611f1a57600080fd5b6000918252602090912060099091020180546001820180546001600160a01b03909216935090611f49906152e9565b80601f0160208091040260200160405190810160405280929190818152602001828054611f75906152e9565b8015611fc25780601f10611f9757610100808354040283529160200191611fc2565b820191906000526020600020905b815481529060010190602001808311611fa557829003601f168201915b505050505090806002018054611fd7906152e9565b80601f0160208091040260200160405190810160405280929190818152602001828054612003906152e9565b80156120505780601f1061202557610100808354040283529160200191612050565b820191906000526020600020905b81548152906001019060200180831161203357829003601f168201915b505050505090806003018054612065906152e9565b80601f0160208091040260200160405190810160405280929190818152602001828054612091906152e9565b80156120de5780601f106120b3576101008083540402835291602001916120de565b820191906000526020600020905b8154815290600101906020018083116120c157829003601f168201915b5050505050908060040180546120f3906152e9565b80601f016020809104026020016040519081016040528092919081815260200182805461211f906152e9565b801561216c5780601f106121415761010080835404028352916020019161216c565b820191906000526020600020905b81548152906001019060200180831161214f57829003601f168201915b505050505090806005018054612181906152e9565b80601f01602080910402602001604051908101604052809291908181526020018280546121ad906152e9565b80156121fa5780601f106121cf576101008083540402835291602001916121fa565b820191906000526020600020905b8154815290600101906020018083116121dd57829003601f168201915b50505050509080600601805461220f906152e9565b80601f016020809104026020016040519081016040528092919081815260200182805461223b906152e9565b80156122885780601f1061225d57610100808354040283529160200191612288565b820191906000526020600020905b81548152906001019060200180831161226b57829003601f168201915b5050506007840154600885018054949560ff9092169491935091506122ac906152e9565b80601f01602080910402602001604051908101604052809291908181526020018280546122d8906152e9565b80156123255780601f106122fa57610100808354040283529160200191612325565b820191906000526020600020905b81548152906001019060200180831161230857829003601f168201915b5050505050905089565b600080546001600160a01b0316331461235a5760405162461bcd60e51b815260040161074a90615324565b6001600160a01b03821660009081526001602052604090205460ff16156123c35760405162461bcd60e51b815260206004820152601a60248201527f5573657220697320616c726561647920612061646d696e212121000000000000604482015260640161074a565b6001600160a01b0382166000818152600160208190526040808320805460ff1916909217909155517f44d6d25963f097ad14f29f06854a01f575648a1ef82f30e562ccd3889717e3399190a2506001919050565b6060600d805480602002602001604051908101604052809291908181526020016000905b828210156126635760008481526020908190206040805160e0810182526007860290920180546001600160a01b0390811684526001820154169383019390935260028301805492939291840191612491906152e9565b80601f01602080910402602001604051908101604052809291908181526020018280546124bd906152e9565b801561250a5780601f106124df5761010080835404028352916020019161250a565b820191906000526020600020905b8154815290600101906020018083116124ed57829003601f168201915b50505050508152602001600382018054612523906152e9565b80601f016020809104026020016040519081016040528092919081815260200182805461254f906152e9565b801561259c5780601f106125715761010080835404028352916020019161259c565b820191906000526020600020905b81548152906001019060200180831161257f57829003601f168201915b5050509183525050600482015460ff16151560208201526005820180546040909201916125c8906152e9565b80601f01602080910402602001604051908101604052809291908181526020018280546125f4906152e9565b80156126415780601f1061261657610100808354040283529160200191612641565b820191906000526020600020905b81548152906001019060200180831161262457829003601f168201915b505050505081526020016006820154815250508152602001906001019061243b565b50505050905090565b6060600c805480602002602001604051908101604052809291908181526020016000905b828210156126635760008481526020908190206040805161012081019091526009850290910180546001600160a01b0316825260018101805492939192918401916126da906152e9565b80601f0160208091040260200160405190810160405280929190818152602001828054612706906152e9565b80156127535780601f1061272857610100808354040283529160200191612753565b820191906000526020600020905b81548152906001019060200180831161273657829003601f168201915b5050505050815260200160028201805461276c906152e9565b80601f0160208091040260200160405190810160405280929190818152602001828054612798906152e9565b80156127e55780601f106127ba576101008083540402835291602001916127e5565b820191906000526020600020905b8154815290600101906020018083116127c857829003601f168201915b505050505081526020016003820180546127fe906152e9565b80601f016020809104026020016040519081016040528092919081815260200182805461282a906152e9565b80156128775780601f1061284c57610100808354040283529160200191612877565b820191906000526020600020905b81548152906001019060200180831161285a57829003601f168201915b50505050508152602001600482018054612890906152e9565b80601f01602080910402602001604051908101604052809291908181526020018280546128bc906152e9565b80156129095780601f106128de57610100808354040283529160200191612909565b820191906000526020600020905b8154815290600101906020018083116128ec57829003601f168201915b50505050508152602001600582018054612922906152e9565b80601f016020809104026020016040519081016040528092919081815260200182805461294e906152e9565b801561299b5780601f106129705761010080835404028352916020019161299b565b820191906000526020600020905b81548152906001019060200180831161297e57829003601f168201915b505050505081526020016006820180546129b4906152e9565b80601f01602080910402602001604051908101604052809291908181526020018280546129e0906152e9565b8015612a2d5780601f10612a0257610100808354040283529160200191612a2d565b820191906000526020600020905b815481529060010190602001808311612a1057829003601f168201915b5050509183525050600782015460ff1615156020820152600882018054604090920191612a59906152e9565b80601f0160208091040260200160405190810160405280929190818152602001828054612a85906152e9565b8015612ad25780601f10612aa757610100808354040283529160200191612ad2565b820191906000526020600020905b815481529060010190602001808311612ab557829003601f168201915b50505050508152505081526020019060010190612690565b3360009081526006602052604090205460ff16612b0657600080fd5b336000908152600a602052604081208054909190829085908110612b2c57612b2c61536f565b906000526020600020906007020160060154905082828581548110612b5357612b5361536f565b906000526020600020906007020160040160006101000a81548160ff02191690831515021790555082600d8281548110612b8f57612b8f61536f565b906000526020600020906007020160040160006101000a81548160ff0219169083151502179055506000828581548110612bcb57612bcb61536f565b60009182526020918290206007909102015460405186151581526001600160a01b039091169250829133917f1c78b70658242cb231eb523a3c50ac7562f19b1d49854b5009841c359641399b910160405180910390a35050505050565b600b8181548110612c3857600080fd5b60009182526020909120600d9091020180546001820180546001600160a01b03909216935090612c67906152e9565b80601f0160208091040260200160405190810160405280929190818152602001828054612c93906152e9565b8015612ce05780601f10612cb557610100808354040283529160200191612ce0565b820191906000526020600020905b815481529060010190602001808311612cc357829003601f168201915b505050505090806002018054612cf5906152e9565b80601f0160208091040260200160405190810160405280929190818152602001828054612d21906152e9565b8015612d6e5780601f10612d4357610100808354040283529160200191612d6e565b820191906000526020600020905b815481529060010190602001808311612d5157829003601f168201915b505050505090806003018054612d83906152e9565b80601f0160208091040260200160405190810160405280929190818152602001828054612daf906152e9565b8015612dfc5780601f10612dd157610100808354040283529160200191612dfc565b820191906000526020600020905b815481529060010190602001808311612ddf57829003601f168201915b505050505090806004018054612e11906152e9565b80601f0160208091040260200160405190810160405280929190818152602001828054612e3d906152e9565b8015612e8a5780601f10612e5f57610100808354040283529160200191612e8a565b820191906000526020600020905b815481529060010190602001808311612e6d57829003601f168201915b505050505090806005018054612e9f906152e9565b80601f0160208091040260200160405190810160405280929190818152602001828054612ecb906152e9565b8015612f185780601f10612eed57610100808354040283529160200191612f18565b820191906000526020600020905b815481529060010190602001808311612efb57829003601f168201915b505050505090806006018054612f2d906152e9565b80601f0160208091040260200160405190810160405280929190818152602001828054612f59906152e9565b8015612fa65780601f10612f7b57610100808354040283529160200191612fa6565b820191906000526020600020905b815481529060010190602001808311612f8957829003601f168201915b505050505090806007018054612fbb906152e9565b80601f0160208091040260200160405190810160405280929190818152602001828054612fe7906152e9565b80156130345780601f1061300957610100808354040283529160200191613034565b820191906000526020600020905b81548152906001019060200180831161301757829003601f168201915b505050505090806008018054613049906152e9565b80601f0160208091040260200160405190810160405280929190818152602001828054613075906152e9565b80156130c25780601f10613097576101008083540402835291602001916130c2565b820191906000526020600020905b8154815290600101906020018083116130a557829003601f168201915b5050505050908060090180546130d7906152e9565b80601f0160208091040260200160405190810160405280929190818152602001828054613103906152e9565b80156131505780601f1061312557610100808354040283529160200191613150565b820191906000526020600020905b81548152906001019060200180831161313357829003601f168201915b50505050509080600a018054613165906152e9565b80601f0160208091040260200160405190810160405280929190818152602001828054613191906152e9565b80156131de5780601f106131b3576101008083540402835291602001916131de565b820191906000526020600020905b8154815290600101906020018083116131c157829003601f168201915b50505050509080600c015490508c565b3360009081526006602052604090205460ff1661320a57600080fd5b336000908152600760205260409020613227600182018c8c6144c5565b50613236600582018a8a6144c5565b506132456004820188886144c5565b506132546008820184846144c5565b506132636006820186866144c5565b5033600090815260086020526040902054600c805483929081106132895761328961536f565b60009182526020909120825460099092020180546001600160a01b0319166001600160a01b0390921691909117815560018083018054918301916132cc906152e9565b6132d7929190614549565b5060028201816002019080546132ec906152e9565b6132f7929190614549565b50600382018160030190805461330c906152e9565b613317929190614549565b50600482018160040190805461332c906152e9565b613337929190614549565b50600582018160050190805461334c906152e9565b613357929190614549565b50600682018160060190805461336c906152e9565b613377929190614549565b50600782810154908201805460ff191660ff909216151591909117905560088083018054918301916133a8906152e9565b6133b3929190614549565b50905050336001600160a01b03167f12406503cb82691c52a7877358340a0f393cbce298f754e167e345e482e1409c8c8c8c8c8c8c8a8a8e8e6040516117859a9998979695949392919061541b565b600460205260009081526040902080546001820180546001600160a01b039092169291612c67906152e9565b6060600b805480602002602001604051908101604052809291908181526020016000905b82821015612663576000848152602090819020604080516101a08101909152600d850290910180546001600160a01b03168252600181018054929391929184019161349c906152e9565b80601f01602080910402602001604051908101604052809291908181526020018280546134c8906152e9565b80156135155780601f106134ea57610100808354040283529160200191613515565b820191906000526020600020905b8154815290600101906020018083116134f857829003601f168201915b5050505050815260200160028201805461352e906152e9565b80601f016020809104026020016040519081016040528092919081815260200182805461355a906152e9565b80156135a75780601f1061357c576101008083540402835291602001916135a7565b820191906000526020600020905b81548152906001019060200180831161358a57829003601f168201915b505050505081526020016003820180546135c0906152e9565b80601f01602080910402602001604051908101604052809291908181526020018280546135ec906152e9565b80156136395780601f1061360e57610100808354040283529160200191613639565b820191906000526020600020905b81548152906001019060200180831161361c57829003601f168201915b50505050508152602001600482018054613652906152e9565b80601f016020809104026020016040519081016040528092919081815260200182805461367e906152e9565b80156136cb5780601f106136a0576101008083540402835291602001916136cb565b820191906000526020600020905b8154815290600101906020018083116136ae57829003601f168201915b505050505081526020016005820180546136e4906152e9565b80601f0160208091040260200160405190810160405280929190818152602001828054613710906152e9565b801561375d5780601f106137325761010080835404028352916020019161375d565b820191906000526020600020905b81548152906001019060200180831161374057829003601f168201915b50505050508152602001600682018054613776906152e9565b80601f01602080910402602001604051908101604052809291908181526020018280546137a2906152e9565b80156137ef5780601f106137c4576101008083540402835291602001916137ef565b820191906000526020600020905b8154815290600101906020018083116137d257829003601f168201915b50505050508152602001600782018054613808906152e9565b80601f0160208091040260200160405190810160405280929190818152602001828054613834906152e9565b80156138815780601f1061385657610100808354040283529160200191613881565b820191906000526020600020905b81548152906001019060200180831161386457829003601f168201915b5050505050815260200160088201805461389a906152e9565b80601f01602080910402602001604051908101604052809291908181526020018280546138c6906152e9565b80156139135780601f106138e857610100808354040283529160200191613913565b820191906000526020600020905b8154815290600101906020018083116138f657829003601f168201915b5050505050815260200160098201805461392c906152e9565b80601f0160208091040260200160405190810160405280929190818152602001828054613958906152e9565b80156139a55780601f1061397a576101008083540402835291602001916139a5565b820191906000526020600020905b81548152906001019060200180831161398857829003601f168201915b50505050508152602001600a820180546139be906152e9565b80601f01602080910402602001604051908101604052809291908181526020018280546139ea906152e9565b8015613a375780601f10613a0c57610100808354040283529160200191613a37565b820191906000526020600020905b815481529060010190602001808311613a1a57829003601f168201915b50505050508152602001600b8201805480602002602001604051908101604052809291908181526020016000905b82821015613bbb5783829060005260206000209060020201604051806040016040529081600082018054613a98906152e9565b80601f0160208091040260200160405190810160405280929190818152602001828054613ac4906152e9565b8015613b115780601f10613ae657610100808354040283529160200191613b11565b820191906000526020600020905b815481529060010190602001808311613af457829003601f168201915b50505050508152602001600182018054613b2a906152e9565b80601f0160208091040260200160405190810160405280929190818152602001828054613b56906152e9565b8015613ba35780601f10613b7857610100808354040283529160200191613ba3565b820191906000526020600020905b815481529060010190602001808311613b8657829003601f168201915b50505050508152505081526020019060010190613a65565b505050508152602001600c8201548152505081526020019060010190613452565b3360009081526001602081905260409091205460ff16151514613c555760405162461bcd60e51b815260206004820152602b60248201527f4f6e6c792041646d696e20686173207065726d697373696f6e20746f20646f2060448201526a3a3430ba1030b1ba34b7b760a91b606482015260840161074a565b6001600160a01b03831660009081526003602052604090205460ff16613cb35760405162461bcd60e51b8152602060048201526013602482015272155cd95c88139bdd081c9959da5cdd195c9959606a1b604482015260640161074a565b6001600160a01b03831660009081526004602090815260408083208151808301909252858252818301859052600b0180546001810182559084529282902081518051929460020290910192613d0d92849290910190614653565b506020828101518051613d269260018501920190614653565b505050505050565b3360009081526003602052604090205460ff16613d4a57600080fd5b336000908152600460205260409020613d67600682018c8c6144c5565b50613d76600782018a8a6144c5565b50613d856009820186866144c5565b50613d946008820188886144c5565b50613da3600a820184846144c5565b5033600090815260056020526040902054600b80548392908110613dc957613dc961536f565b600091825260209091208254600d9092020180546001600160a01b0319166001600160a01b039092169190911781556001808301805491830191613e0c906152e9565b613e17929190614549565b506002820181600201908054613e2c906152e9565b613e37929190614549565b506003820181600301908054613e4c906152e9565b613e57929190614549565b506004820181600401908054613e6c906152e9565b613e77929190614549565b506005820181600501908054613e8c906152e9565b613e97929190614549565b506006820181600601908054613eac906152e9565b613eb7929190614549565b506007820181600701908054613ecc906152e9565b613ed7929190614549565b506008820181600801908054613eec906152e9565b613ef7929190614549565b506009820181600901908054613f0c906152e9565b613f17929190614549565b50600a820181600a01908054613f2c906152e9565b613f37929190614549565b50600b8281018054613f4c92840191906145c4565b50600c9182015491015560405133907f1190c1e162935f3251ce6ed53d77dc7f81d862e89e23649069d4b4af2f6d0dc490611785908e908e908e908e908e908e908e908e908e908e9061541b565b600760205260009081526040902080546001820180546001600160a01b039092169291611f49906152e9565b600a6020528160005260406000208181548110613fe257600080fd5b60009182526020909120600790910201805460018201546002830180546001600160a01b039384169650919092169350610522906152e9565b3360009081526003602052604090205460ff161561403857600080fd5b33600081815260046020526040902080546001600160a01b0319169091178155614066600182018c8c6144c5565b50614075600382018a8a6144c5565b506140846004820188886144c5565b506140936005820186866144c5565b506140a26002820184846144c5565b50336000908152600360209081526040808320805460ff19166001908117909155600b80546005909452918420839055828101825592528254600d9091027f0175b7a638427703f0dbe7bb9bbf987a2551717b34e79f33b5b1008d1fa01db9810180546001600160a01b0319166001600160a01b0393909316929092178255918301805484937f0175b7a638427703f0dbe7bb9bbf987a2551717b34e79f33b5b1008d1fa01dba019190614155906152e9565b614160929190614549565b506002820181600201908054614175906152e9565b614180929190614549565b506003820181600301908054614195906152e9565b6141a0929190614549565b5060048201816004019080546141b5906152e9565b6141c0929190614549565b5060058201816005019080546141d5906152e9565b6141e0929190614549565b5060068201816006019080546141f5906152e9565b614200929190614549565b506007820181600701908054614215906152e9565b614220929190614549565b506008820181600801908054614235906152e9565b614240929190614549565b506009820181600901908054614255906152e9565b614260929190614549565b50600a820181600a01908054614275906152e9565b614280929190614549565b50600b828101805461429592840191906145c4565b50600c9182015491015560405133907f6e6361732d795696d0a32747239f51a3397b91f563ee6da05cf1eee0fedbf2a390611785908e908e908e908e908e908e908e908e908e908e9061541b565b3360009081526006602052604090205460ff166142ff57600080fd5b33600090815260076020526040902061431c6002820186866144c5565b5061432b6003820184846144c5565b5033600090815260086020526040902054600c805483929081106143515761435161536f565b60009182526020909120825460099092020180546001600160a01b0319166001600160a01b039092169190911781556001808301805491830191614394906152e9565b61439f929190614549565b5060028201816002019080546143b4906152e9565b6143bf929190614549565b5060038201816003019080546143d4906152e9565b6143df929190614549565b5060048201816004019080546143f4906152e9565b6143ff929190614549565b506005820181600501908054614414906152e9565b61441f929190614549565b506006820181600601908054614434906152e9565b61443f929190614549565b50600782810154908201805460ff191660ff90921615159190911790556008808301805491830191614470906152e9565b61447b929190614549565b50506040513391507f4d2ac2ad37a98b252cd42d5390d46676a665a89b57a69a654087620a684a4cbb906144b69088908890889088906154db565b60405180910390a25050505050565b8280546144d1906152e9565b90600052602060002090601f0160209004810192826144f35760008555614539565b82601f1061450c5782800160ff19823516178555614539565b82800160010185558215614539579182015b8281111561453957823582559160200191906001019061451e565b506145459291506146c7565b5090565b828054614555906152e9565b90600052602060002090601f0160209004810192826145775760008555614539565b82601f106145885780548555614539565b8280016001018555821561453957600052602060002091601f016020900482015b828111156145395782548255916001019190600101906145a9565b8280548282559060005260206000209060020281019282156146475760005260206000209160020282015b82811115614647578254839083908190839061460a906152e9565b614615929190614549565b50600182018160010190805461462a906152e9565b614635929190614549565b505050916002019190600201906145ef565b506145459291506146dc565b82805461465f906152e9565b90600052602060002090601f0160209004810192826146815760008555614539565b82601f1061469a57805160ff1916838001178555614539565b82800160010185558215614539579182015b828111156145395782518255916020019190600101906146ac565b5b8082111561454557600081556001016146c8565b808211156145455760006146f08282614707565b6146fe600183016000614707565b506002016146dc565b508054614713906152e9565b6000825580601f10614723575050565b601f01602090049060005260206000209081019061474191906146c7565b50565b80356001600160a01b03811681146107f157600080fd5b60006020828403121561476d57600080fd5b61477682614744565b9392505050565b6000815180845260005b818110156147a357602081850181015186830182015201614787565b818111156147b5576000602083870101525b50601f01601f19169290920160200192915050565b6001600160a01b0388811682528716602082015260e0604082018190526000906147f69083018861477d565b8281036060840152614808818861477d565b9050851515608084015282810360a0840152614824818661477d565b9150508260c083015298975050505050505050565b60006020828403121561484b57600080fd5b5035919050565b600082825180855260208086019550808260051b84010181860160005b848110156148c357601f198684030189528151604081518186526148958287018261477d565b915050858201519150848103868601526148af818361477d565b9a86019a945050509083019060010161486f565b5090979650505050505050565b80516001600160a01b0316825260006101a060208301518160208601526148f98286018261477d565b91505060408301518482036040860152614913828261477d565b9150506060830151848203606086015261492d828261477d565b91505060808301518482036080860152614947828261477d565b91505060a083015184820360a0860152614961828261477d565b91505060c083015184820360c086015261497b828261477d565b91505060e083015184820360e0860152614995828261477d565b91505061010080840151858303828701526149b0838261477d565b9250505061012080840151858303828701526149cc838261477d565b9250505061014080840151858303828701526149e8838261477d565b925050506101608084015185830382870152614a048382614852565b61018095860151969095019590955250919392505050565b60208152600061477660208301846148d0565b803580151581146107f157600080fd5b600060208284031215614a5157600080fd5b61477682614a2f565b60008083601f840112614a6c57600080fd5b50813567ffffffffffffffff811115614a8457600080fd5b602083019150836020828501011115614a9c57600080fd5b9250929050565b600080600080600060608688031215614abb57600080fd5b614ac486614744565b9450602086013567ffffffffffffffff80821115614ae157600080fd5b614aed89838a01614a5a565b90965094506040880135915080821115614b0657600080fd5b50614b1388828901614a5a565b969995985093965092949392505050565b60008060008060008060008060008060a08b8d031215614b4357600080fd5b8a3567ffffffffffffffff80821115614b5b57600080fd5b614b678e838f01614a5a565b909c509a5060208d0135915080821115614b8057600080fd5b614b8c8e838f01614a5a565b909a50985060408d0135915080821115614ba557600080fd5b614bb18e838f01614a5a565b909850965060608d0135915080821115614bca57600080fd5b614bd68e838f01614a5a565b909650945060808d0135915080821115614bef57600080fd5b50614bfc8d828e01614a5a565b915080935050809150509295989b9194979a5092959850565b600060018060a01b0380835116845280602084015116602085015250604082015160e06040850152614c4a60e085018261477d565b905060608301518482036060860152614c63828261477d565b91505060808301511515608085015260a083015184820360a0860152614c89828261477d565b91505060c083015160c08501528091505092915050565b6020815260006147766020830184614c15565b6000806000806000806000806080898b031215614ccf57600080fd5b883567ffffffffffffffff80821115614ce757600080fd5b614cf38c838d01614a5a565b909a50985060208b0135915080821115614d0c57600080fd5b614d188c838d01614a5a565b909850965060408b0135915080821115614d3157600080fd5b614d3d8c838d01614a5a565b909650945060608b0135915080821115614d5657600080fd5b50614d638b828c01614a5a565b999c989b5096995094979396929594505050565b6000602080830181845280855180835260408601915060408160051b870101925083870160005b82811015614dcc57603f19888603018452614dba858351614c15565b94509285019290850190600101614d9e565b5092979650505050505050565b6001600160a01b038a16815261012060208201819052600090614dfe8382018c61477d565b90508281036040840152614e12818b61477d565b90508281036060840152614e26818a61477d565b90508281036080840152614e3a818961477d565b905082810360a0840152614e4e818861477d565b905082810360c0840152614e62818761477d565b905084151560e0840152828103610100840152614e7f818561477d565b9c9b505050505050505050505050565b60006020808301818452808551808352604092508286019150828160051b87010184880160005b83811015614fb957888303603f19018552815180516001600160a01b0316845261012088820151818a870152614eee8287018261477d565b9150508782015185820389870152614f06828261477d565b91505060608083015186830382880152614f20838261477d565b9250505060808083015186830382880152614f3b838261477d565b9250505060a08083015186830382880152614f56838261477d565b9250505060c08083015186830382880152614f71838261477d565b9250505060e080830151614f888288018215159052565b50506101008083015192508582038187015250614fa5818361477d565b968901969450505090860190600101614eb6565b509098975050505050505050565b60008060408385031215614fda57600080fd5b82359150614fea60208401614a2f565b90509250929050565b6001600160a01b038d1681526101806020820152600061501761018083018e61477d565b8281036040840152615029818e61477d565b9050828103606084015261503d818d61477d565b90508281036080840152615051818c61477d565b905082810360a0840152615065818b61477d565b905082810360c0840152615079818a61477d565b905082810360e084015261508d818961477d565b90508281036101008401526150a2818861477d565b90508281036101208401526150b7818761477d565b90508281036101408401526150cc818661477d565b915050826101608301529d9c50505050505050505050505050565b6000602080830181845280855180835260408601915060408160051b870101925083870160005b82811015614dcc57603f1988860301845261512a8583516148d0565b9450928501929085019060010161510e565b634e487b7160e01b600052604160045260246000fd5b600082601f83011261516357600080fd5b813567ffffffffffffffff8082111561517e5761517e61513c565b604051601f8301601f19908116603f011681019082821181831017156151a6576151a661513c565b816040528381528660208588010111156151bf57600080fd5b836020870160208301376000602085830101528094505050505092915050565b6000806000606084860312156151f457600080fd5b6151fd84614744565b9250602084013567ffffffffffffffff8082111561521a57600080fd5b61522687838801615152565b9350604086013591508082111561523c57600080fd5b5061524986828701615152565b9150509250925092565b6000806040838503121561526657600080fd5b61526f83614744565b946020939093013593505050565b6000806000806040858703121561529357600080fd5b843567ffffffffffffffff808211156152ab57600080fd5b6152b788838901614a5a565b909650945060208701359150808211156152d057600080fd5b506152dd87828801614a5a565b95989497509550505050565b600181811c908216806152fd57607f821691505b6020821081141561531e57634e487b7160e01b600052602260045260246000fd5b50919050565b6020808252602b908201527f4f6e6c79204f776e657220686173207065726d697373696f6e20746f20646f2060408201526a3a3430ba1030b1ba34b7b760a91b606082015260800190565b634e487b7160e01b600052603260045260246000fd5b60006000198214156153a757634e487b7160e01b600052601160045260246000fd5b5060010190565b81835281816020850137506000828201602090810191909152601f909101601f19169091010190565b6001600160a01b03861681526060602082018190526000906153fc90830186886153ae565b828103604084015261540f8185876153ae565b98975050505050505050565b60a08152600061542f60a083018c8e6153ae565b8281036020840152615442818b8d6153ae565b9050828103604084015261545781898b6153ae565b9050828103606084015261546c8187896153ae565b905082810360808401526154818185876153ae565b9d9c50505050505050505050505050565b6060815260006154a660608301888a6153ae565b82810360208401526154b98187896153ae565b905082810360408401526154ce8185876153ae565b9998505050505050505050565b6040815260006154ef6040830186886153ae565b82810360208401526155028185876153ae565b97965050505050505056fea2646970667358221220e2cdc2a31e84b4ae830f5352faedcb74cf7204031894a0a5ea1d37aaf09a724064736f6c63430008080033",
  "linkReferences": {},
  "deployedLinkReferences": {}
}